:020000040800F2
:10000000C01100200109000801060008ED080008E1
:10001000ED080008ED080008ED08000800000000E9
:10002000000000000000000000000000DD090008E2
:10003000ED08000800000000890900086D1700089D
:10004000590B0008590B0008590B0008590B000800
:10005000590B0008590B0008590B0008590B0008F0
:10006000590B0008590B0008590B0008590B0008E0
:10007000590B0008590B0008590B0008590B0008D0
:10008000590B0008590B0008590B0008590B0008C0
:10009000590B0008590B0008590B0008590B0008B0
:1000A000590B0008590B0008590B0008590B0008A0
:1000B000590B0008590B0008590B0008590B000890
:1000C000590B0008590B0008590B0008590B000880
:1000D000590B0008590B0008590B0008590B000870
:1000E000590B0008590B0008590B0008590B000860
:1000F000590B0008590B0008590B0008590B000850
:10010000590B0008590B0008590B0008590B00083F
:10011000590B0008590B0008590B0008590B00082F
:10012000590B0008590B0008590B0008590B00081F
:10013000590B0008590B0008590B0008590B00080F
:10014000590B0008590B0008590B0008590B0008FF
:10015000590B0008590B0008590B0008590B0008EF
:10016000590B0008590B0008590B0008590B0008DF
:10017000590B0008590B0008590B0008590B0008CF
:10018000590B0008590B0008590B0008590B0008BF
:10019000590B0008590B0008590B0008590B0008AF
:0C01A000590B0008590B0008590B00080F
:1001AC0053B94AB9002908BF00281CBF4FF0FF31D2
:1001BC004FF0FF3000F088B9ADF1080C6DE904CEBA
:1001CC0000F006F8DDF804E0DDE9022304B0704726
:1001DC002DE9F047089D0F4604468C46002B48D16C
:1001EC008A42164661D9B2FA82F34BB1C3F12002AE
:1001FC0001FA03FC20FA02F29E4042EA0C0C9C40ED
:10020C004FEA164EB7B2BCFBFEF1220C0EFB11CC22
:10021C0042EA0C4201FB07F0904209D9B21801F1F5
:10022C00FF3C80F0EE80904240F2EB800239324489
:10023C00121AA4B2B2FBFEF00EFB102244EA0244E6
:10024C0000FB07F7A74209D9341900F1FF3280F0FF
:10025C00DA80A74240F2D7803444023840EA0140A9
:10026C00E41B00211DB1DC400023C5E90043BDE8BF
:10027C00F0878B4206D90DB1C5E900010021084673
:10028C00BDE8F087B3FA83F1002948D1BB4202D311
:10029C00824200F20781841A67EB03020120944624
:1002AC00002DE4D0C5E9004CE1E7002A00F0928073
:1002BC00B2FA82F3002B40F0A8808A1A4FEA164E4D
:1002CC001FFA86FC0121200CB2FBFEF70EFB172255
:1002DC0040EA02420CFB07F0904207D9B21807F132
:1002EC00FF3802D2904200F2E2804746121AA4B2C2
:1002FC00B2FBFEF00EFB102244EA02440CFB00FCA5
:10030C00A44507D9341900F1FF3202D2A44500F2FA
:10031C00CB801046A4EB0C0440EA0740A2E7C1F1E5
:10032C0020068B4022FA06FC4CEA030C07FA01F477
:10033C0020FA06F3F7404FEA1C49234300FA01F870
:10034C001FFA8CFEB7FBF9F01C0C09FB107744EA82
:10035C00074400FB0EF7A74202FA01F20AD91CEB84
:10036C00040400F1FF3A80F09B80A74240F2988091
:10037C0002386444E41B9FB2B4FBF9F309FB134449
:10038C0047EA044403FB0EFEA64509D91CEB040402
:10039C0003F1FF3780F08280A6457FD9023B64448D
:1003AC0043EA0040A4EB0E04A0FB02E7BC427346F8
:1003BC00B94663D360D05DB1B8EB030264EB0904BA
:1003CC0004FA06F622FA01F31E43CC40C5E9006498
:1003DC0000214CE76208480842EAC1710B0C43EA61
:1003EC0000438AB242EA0342B3FBF6F1E407B44697
:1003FC003746B6461F23B0FBF6F0D21B41EA00414C
:10040C0061E7614614E7104628E7C3F1200120FAA2
:10041C0001F29E4027FA01F19F403A434FEA164EF3
:10042C001FFA86FCB1FBFEF70EFB1710110C41EA0C
:10043C00004107FB0CF8884504FA03F43AD971180B
:10044C0007F1FF3001D288451FD8A1EB0801B1FBA1
:10045C00FEF808FB0CF70EFB181192B242EA0142AF
:10046C00BA422FD2B21808F1FF31C6D2BA42C4D266
:10047C00A8F102013244C0E7F0459CD2BEEB020366
:10048C0067EB0C070138B94695E7A6EB0808414421
:10049C00B81EB1FBFEF808FB0CF7DCE73B467FE728
:1004AC00504667E70846FBE63444023832E7023F21
:1004BC0032441BE7A1EB08013846B1FBFEF808FB00
:1004CC000CF7C8E7414698E7704700BF70B51C4C65
:1004DC00204603F069F820B91A4802F01BF90020F5
:1004EC0070BD194802F016F92669A568336823F027
:1004FC008003336007212B684FF4C02220469847B5
:10050C00014618B1114802F0F3F8E8E7104802F080
:10051C0001F9002142F2107001F0D4FE0D4802F0F6
:10052C00F9F833681B064FF0800154BFEB682B6958
:10053C002046984701460028D1D00748E3E700BF82
:10054C00C8390008623F00088E3F0008B43F00081D
:10055C00D53F0008E93F000806400008014B1B6826
:10056C00184700BF00000020014B1860704700BF07
:10057C000000002030B585B004460D461022002145
:10058C00684603F0DAF802238DF802302A46044B51
:10059C0001932146684602F06DF905B030BD00BFED
:1005AC0069050008034A536823F0020353600020D6
:1005BC00704700BF002004E0084B1A6842F48072B8
:1005CC001A601A6842F400721A601A6842F4806267
:1005DC001A60034B034A1A60704700BF003C02408C
:1005EC00380000200024F400014B03600020704709
:1005FC00143D000808B5034B1B689847BDE808403C
:10060C0000F006B80400002030BFFFF7FDBF00BFAC
:10061C00074A936893F90E10002907DB526993423D
:10062C001FBF044A536843F080535360704700BFA8
:10063C00A803002000ED00E070B5264B15469A6A21
:10064C0012F0100F9A6A14BF1124102412F0080F24
:10065C009A6A18BF1224920706460AD5586B9A6AF2
:10066C00140634D519B19A6A22F080029A621324C6
:10067C0001E06FF01500174B9A6A12F0010F9A6A9D
:10068C0018BF142412F0200F9A6A18BF1524D20632
:10069C0002D49B6A9B070AD50E4B5B68190506D5DD
:1006AC00314600F00DFA10B180F309880224094B91
:1006BC009A6A920642BF5A6A22F400525A629A6AA5
:1006CC0042F0FF029A6200232B70204670BD6FF03F
:1006DC001500CCE700ED00E0134B9A6A12F0007F96
:1006EC009A6A14BF1E201D2012F0807F9A6A18BFD0
:1006FC001F2012F4002F9A6A18BF212012F4802FA9
:10070C009A6A18BF222012F4003F9A6A18BF23205D
:10071C0012F4803F9A6A6FEA02426FEA12429A62BE
:10072C0018BF2420704700BF00ED00E010B5194B36
:10073C000246986A9C6A10F4805F14BF172016203A
:10074C0014F4006F9C6A18BF1820A40509D5986B87
:10075C00986A000404D51AB19A6A22F400429A628B
:10076C0019200C4B9A6A12F4806F9A6A18BF1A20DF
:10077C00D2050CD49B6A13F4005F18BF1C20054AE9
:10078C00936A43F47F43936200230B7010BD1B20CC
:10079C00F5E700BF00ED00E0F0B54A4B5B688BB0AD
:1007AC000446C3F30803002585F31188BFF36F8F4C
:1007BC0002F07F40B0F17F4F18D102F00C000828F6
:1007CC0014D010074CBF0C4601250022033B8DF8BA
:1007DC000720032B0CD801A252F823F03D08000887
:1007EC00BB080008C3080008B50800082C46ECE755
:1007FC0000239DF80720CAB902AE04F12007206837
:10080C006168324603C20834BC421646F7D1099AD5
:10081C00002D54D0C2F3080121B96FEA52226FEABD
:10082C004222099202A9184602F078FB0BB0F0BDE7
:10083C00244BDA6A9107DBD4DA6A002AD8DBDA6A4D
:10084C005200D5D55A69A16942F480725A61BFF33E
:10085C004F8FBFF36F8F5A6931F8021C22F48072EC
:10086C005A61BFF34F8FBFF36F8F4DF602729142F7
:10087C000AD09A6AD2B24AB10DF107020121204680
:10088C00FFF7DAFE0346B4E72368B2E79A6A12F47C
:10089C007F4F05D00DF107010120FFF747FFF1E76E
:1008AC009B6AB3F5803FA3D3FFF716FFEAE70DF180
:1008BC0007020021E3E70DF107010020EDE76FF3DC
:1008CC000802AEE700ED00E0044B5A6942F010025A
:1008DC005A615A6922F008025A61704700ED00E033
:1008EC00EFF30880EFF3098101B57246FFF754FF6F
:1008FC0001BD00BF102080F3118808484FF404613B
:10090C00401880F30988EFF314800221084380F328
:10091C001488BFF36F8F00F093F8000000040020E0
:10092C00084B9B6883420BD1EFF3058343B1064B15
:10093C005A6842F080525A605A6A22F400425A6253
:10094C0002F0B2BEA803002000ED00E0094A936853
:10095C006FF00A019967084958674B6843F0805358
:10096C004B60002383F31188BFF36F8F9368986FEC
:10097C00704700BFA803002000ED00E012498A6810
:10098C004FF030001044EFF3098C80E8F01F10207A
:10099C0080F31288BFF36F8F0C4F4FF000664A69DB
:1009AC008A603E60506F0023536780F3118804B552
:1009BC00104600F0E9F8BDE8044002F1300090E880
:1009CC00F01F8CF309887047A803002004ED00E0A9
:1009DC001EF0040F0CBFEFF30880EFF30980816960
:1009EC0011F8021C0229FFD001B5724602F09CFAE4
:1009FC0001BD00BF40B2002807DB044A41090123B6
:100A0C0000F01F00834042F82130704700E100E005
:100A1C0040B20028A8BF00F1604001F10101B8BF4D
:100A2C00064B4FEA0111ACBF00F5614000F00F001E
:100A3C00C9B2B4BF195480F80013704714ED00E02C
:100A4C000F4A08B50F4B22F07F029A60BFF34F8F0D
:100A5C00BFF36F8FD3F8882022F47002C3F888207C
:100A6C00EFF3148323F0040383F31488BFF36F8F25
:100A7C0001F090F801F0D2FC00F05CF801F0D8F82D
:100A8C000000000800ED00E042F8203C009B42F81A
:100A9C001C3C0A49019B42F8183C029B42F8143C4E
:100AAC0021F001014FF0807342F8043C42F8081C1D
:100ABC000023203A02654367704700BF132F0008DC
:100ACC00094A0346906870B113F1160F406E05D0B9
:100ADC00A0F140029A4205D8834203D2814228BF3A
:100AEC000020704700207047A803002008B50B4B6E
:100AFC000E461546986000F047F82C4686F3098898
:100B0C004FF00000064B984720464FF000014FF085
:100B1C0000024FF00003034C204700BFA803002045
:100B2C00452F0008132F0008014B10221A61704743
:100B3C0000ED00E0044800231021C21801335B2BA8
:100B4C0082F80013F9D1704700E100E008B5EFF32B
:100B5C000583064A103B02EBC30152F83300496887
:100B6C008847BDE80840FFF753BD00BF183A00089E
:100B7C00024B034A0348012100F076B80000032021
:100B8C0000000020143D0008436E054A403B1360F2
:100B9C00044B4021C2E901131046012100F06EB84C
:100BAC002802002000000B15084AC2F898000B68B8
:100BBC0023F01F03034343F01003C2F89C308B68EF
:100BCC0043F00103C2F8A030704700BF00ED00E015
:100BDC002DE9F043DFF8608085B00E461F460446D1
:100BEC004FF00009B14523DA6068D8B13FB1411E1E
:100BFC0008421BD11F2819D92368194216D1236822
:100C0C00019302F0ADF9A36803430393D8F8905015
:100C1C00C5F30725D0B2013DA84207D801A9FFF7BB
:100C2C00C3FF421C09F101090C34DBE76FF015021C
:100C3C00104605B0BDE8F08300ED00E0044B052242
:100C4C00C3F89420BFF34F8FBFF36F8F704700BF73
:100C5C0000ED00E0BFF35F8F024B0022C3F894203D
:100C6C00704700BF00ED00E010B5034C0123227863
:100C7C00FFF7AEFF207010BDD803002008B50B4A5B
:100C8C0000231278FFF7A4FF10F1160F07D0084AC3
:100C9C000021D2F89030C3F30723984200DB08BD43
:100CAC00C2F89800C2F8A0100130F2E7D803002077
:100CBC0000ED00E02DE9F043524B534DD3F890304A
:100CCC002C68C3F307239C4285B000F29880FFF791
:100CDC00C1FF00200C26844219D14C4EDFF8249120
:100CEC0034706846FFF780FC494C4A4D804600271B
:100CFC00B84513D1337843490020D1F89020C2F382
:100D0C000722934275DBFFF799FF002042E06968E8
:100D1C0006FB0011FFF748FF0130DCE7009800EB01
:100D2C0007114FEA071CCB682340B3F5000F47D0DF
:100D3C000AD8B3F5001F30D0B3F5800F35D0B3F51A
:100D4C00801F10D00137D3E7B3F1807F41D0B3F1CE
:100D5C00007FF7D150F80C3088684A6802F000F92F
:100D6C0040F4802009E050F80C3088684A6802F0A2
:100D7C00F7F840F0885040F43020CDE9012303907F
:100D8C00D9F890303078C3F30723013B984229D926
:100D9C006FF0150005B0BDE8F08350F80C30886892
:100DAC004A6802F0DDF82843E7E750F80C30886811
:100DBC004A6802F0D5F840F0E06040F40030DCE71F
:100DCC0050F80C3088684A6802F0CAF840F082701B
:100DDC00D3E750F80C3088684A6802F0C1F840F04C
:100DEC008870CAE701A9FFF7DFFE3378013333704F
:100DFC00A8E7C1F89830C1F8A00001337DE74FF0A7
:100E0C00FF30C7E700ED00E0203D0008D8030020CC
:100E1C000000F0FF0000081108B5024B1B68984752
:100E2C00002008BD34020020034B044A186093785C
:100E3C0043F0020393707047340200200800002036
:100E4C0008B50649064821F00701C1F1005202F528
:100E5C00403202F008F8002008BD00BF0712002045
:100E6C00380200202DE9F0410F4E104F04460025AA
:100E7C004FF001086378EAB2934201D2BDE8F081E9
:100E8C00237871691344DAB208FA02F201EA02001B
:100E9C008A4307D1706157F833201AB107EBC303AB
:100EAC00596890470135E5E7003C014044020020B9
:100EBC00044B1844002301338B4200F8012BFADB5E
:100ECC00704700BF4400002007B506220121002016
:100EDC00FFF7EEFF002211460620FFF799FD0121D6
:100EEC0008460722FFF7E4FF002211460720FFF710
:100EFC008FFD082201210220FFF7DAFF00221146A4
:100F0C000820FFF785FD092201210320FFF7D0FF00
:100F1C00002211460920FFF77BFD0A220121042043
:100F2C00FFF7C6FF002211460A20FFF771FD0521CD
:100F3C0008461722FFF7BCFF002211461720FFF7C7
:100F4C0067FD282206210A20FFF7B2FF0022114676
:100F5C002820FFF75DFD064A92E80300CDE9000169
:100F6C000448826869461268904703B05DF804FB38
:100F7C000C3D0008D8380008034660B1B0FA80F286
:100F8C00C2F11F02D2B205498856054A11680B43BB
:100F9C001360FFF72FBDFF22F5E700BF44000020D0
:100FAC00003C0140024A136823EA000313607047B7
:100FBC00003C0140032929D801A353F821F000BFBC
:100FCC00DD0F0008F10F0008F90F00080B100008E6
:100FDC000F4B9A6822EA00029A60DA6822EA000251
:100FEC00DA6070470A4B9A680243F5E7084BDA68F7
:100FFC000243DA609A6822EA00029A607047044B56
:10100C009A6802439A60DA681043D860704700BF50
:10101C00003C014030B5B0B1B0FA80F3C3F11F030E
:10102C00DBB20B4850F833408C4204D100EBC305C3
:10103C006D68954205D044B940F8331000EBC300FD
:10104C004260002030BDFF23EBE76FF00F00F9E7A3
:10105C004402002060B1B0FA80F3C3F11F03DBB28D
:10106C00044A002142F8331002EBC302516070476E
:10107C00FF23F5E74402002000F003020432920043
:10108C000F23934043EA9000C3B20233054A52F84F
:10109C002320030C02EA104093FAA3F3B3FA83F370
:1010AC00D84070470038014010B5254B14461A68DB
:1010BC000B68072B12D8D3B1023B052B1FD801A10B
:1010CC0051F823F03B110008411100083B110008B6
:1010DC00471100081511000827110008402B0DD0EE
:1010EC0008D823F00401302909D0382B07D06FF031
:1010FC00850006E0442B05D0A82BF7E79208226068
:10110C00002010BD5208FAE700F0ACF84FF4A873B9
:10111C00C008584340082060F2E700F0A3F84FF4F1
:10112C00A873C00858430723B0FBF3F0F3E7002380
:10113C002360E5E74FF4FA43FAE7024BF8E700BF08
:10114C003800002000127A00F8B5424F424C00F0F3
:10115C009FF8384601F0B4FF00F0CAFBA3683F4A81
:10116C00C3F303131578D35C47FA05F520FA03F69D
:10117C00AE4202D2284600F0E9FB236843F48023F8
:10118C002360236843F480332360334B1A68920343
:10119C00FCD55A6F42F001025A675A6F9407FCD57E
:1011AC009A6802F00C02082A17D11A68900707D423
:1011BC001A6842F001021A60274A13689907FCD595
:1011CC00254B9A6822F003029A609A6812F00C0F71
:1011DC00FBD19A6822F0F0029A601F4C236823F02E
:1011EC0080732360636823F440336360636823F087
:1011FC00706343F0E063636000F038F8236843F0F9
:10120C008073236023689B01FCD5A36823F0F00353
:10121C00A360A36823F0030343F00203A3600E4C06
:10122C00A36803F00C03082BFAD1AE4202D3284674
:10123C0000F08CFB0A4B1F60A36823F4E05343F4CB
:10124C00A053A360A36823F4604343F40043A3605A
:10125C000020F8BD007A030A003802408B410008D8
:10126C00380000200048704700127A00054B0649F0
:10127C005A681140054A0A435A605A6822F44032AF
:10128C005A607047003802400080BFFF085440008D
:10129C00064B1A6C42F0805282B01A641B6C03F03D
:1012AC0080530193019B02B0704700BF003802408D
:1012BC0008B5074802F078F938B10648FFF7B4FDD5
:1012CC000448FFF751F9002008BD6FF01200FBE74E
:1012DC00F0390008E51200080A2838B5074D044615
:1012EC0004D1AB680D215B6828469847AB6803486E
:1012FC005B68E1B29847204638BD00BFF039000862
:10130C002DE9F843D0F80480D0F81090D8F80800F4
:10131C0017460D461E4601F038FEB7F5001F044671
:10132C0016D12846D8F80840FFF7A6FE84420CD107
:10133C00294601F02AFE0446FFF734FE2046FFF74B
:10134C0089FE00212046FFF735FE0020BDE8F8831A
:10135C00B7F5800F20D0B6F1806F19D0B6F1C06F01
:10136C0018D0B6F1007F1AD1022610494A46204601
:10137C00FFF750FEB0B9D8F80810284601F008FE67
:10138C0020463146FFF716FE2046FFF7F5FDDCE759
:10139C000126EAE70326E8E76FF08500D6E76FF051
:1013AC001500D3E76FF00F00D0E700BF193300082A
:1013BC0038B5036904465860084D284602F0F4F825
:1013CC0040B16168AB680C311B682846984700EA4D
:1013DC00E07038BD6FF01200FBE700BFD838000892
:1013EC002DE9F0471E4F044600EBC1060025B44220
:1013FC0001D1002014E02068C30600F01F0911D4AD
:10140C00656845F02005C0F3481AC0F344200F2846
:10141C0023D857F82080B8F1000F0DD16FF01200CF
:10142C00BDE8F087B9F1100F04D0B9F1110FEAD172
:10143C006568E8E73025E6E7404602F0B5F8002895
:10144C00ECD04B462A460AF00F01404601F074FFDF
:10145C00002804F10804CADAE2E76FF01500DFE7B0
:10146C00443E0008F8B503690C465E682379416870
:10147C00012B34D09A1E55425541AD026279022A95
:10148C009CBF354F37F812C0A27988BF4FF4005C6F
:10149C00042A27D0003B18BF01231B03E279012A41
:1014AC000A680CBF4FF440770027A642D1681CD1C4
:1014BC0021F4B05129430B43D360136923F44053F7
:1014CC0043EA0C03136143681A68536923F44073AD
:1014DC003B4353613168BDE8F84001F0C8BF4FF49D
:1014EC00C065CBE74FF48053D8E701F4C0618D425F
:1014FC001FBFD16821F4C0612943D16042681168D3
:10150C000A6902F4405294451FBF0A6922F4405202
:10151C0042EA0C020A6142681168CA6802F48052FD
:10152C0093421FBFCA6822F480521343CB604368B6
:10153C001A68536903F440739F421FBF536923F425
:10154C0040733B43536121683368994203D001F0E7
:10155C008EFF23683360F8BD5C3F0008F8B5436824
:10156C001D6803695E680B79012B0C4652D0991EDD
:10157C004A424A41920294F805C0A779BCF1020F85
:10158C0096BF2C494FF4005131F81C10042F00D099
:10159C004BB1A3F1030EBEF1010F47D90BB1042FD0
:1015AC0044D04FF48053B1F5805F36D0B1F5405F35
:1015BC0035D000290CBF012103218C4536D183B3D2
:1015CC00002A0CBF042303239F422FD1E37983B15C
:1015DC00012B2BD1184B9D420BD0A3F54C439D42B4
:1015EC0007D003F580639D4203D003F54C439D4225
:1015FC001CD1EB6823F40053EB602146FFF732FF5C
:10160C00EB6843F40053EB6094E8030086E80300B6
:10161C000020F8BD4FF4C062ADE70021CDE70221F8
:10162C00CBE7002A0CBF03230223CDE76FF0850024
:10163C00EFE700BF5C3F000800100140F7B50669FA
:10164C00446805462648306001F0AEFF18B96FF0CB
:10165C00120003B0F0BD3068E16883681B689847DE
:10166C000028F6DB206A01AA002101F07DFE00288B
:10167C00EFDB019B002219791868FFF7B1FE0028F7
:10168C00E7DB6E682B6934685F68E36823F400530A
:10169C00E360706801F088FF0028D8D0D6E901011A
:1016AC008368DB6803B1984704F10C0353E8003FEF
:1016BC0043F00C0304F10C0141E80032002AF3D191
:1016CC0039462846FFF7CEFE337D1BB1636943F0E4
:1016DC0008036361E36843F40053E3600020B8E758
:1016EC00D83800084FF0E0239A69196998690C4BB7
:1016FC001B68002A08BF1A46002808BF184611F4B8
:10170C00803F084901D1824205D20A681A440A6016
:10171C004FF0E02212690A681344181A704700BF90
:10172C00A4030020A00300200A4B102283F82320DE
:10173C00094B44F2A0121A60084B002018604FF0BD
:10174C00E02344F29F125A6198611A6942F0070231
:10175C001A61704700ED00E0A4030020A0030020F4
:10176C00684620F007018D4619B5FFF7BBFF114BFA
:10177C001149D3E900420868001942F10002C3E99B
:10178C0000020E4A00230B60D2E9004144F2A01380
:10179C00001BB0FBF3F043431B1941F10001C2E9FC
:1017AC00003100F021FFFEF733FFBDE819408546FC
:1017BC00704700BF80000020A003002078000020AC
:1017CC002DE9F041364E89B1421C0AD14FF0E0228E
:1017DC00136923F0010313614FF07F433360BDE8BD
:1017EC00F0813568012806DC00240AE0431C3568CA
:1017FC00F8D140F2E53040F2E6339842A8BF1846E3
:10180C00441EEFF31187102383F31288BFF36F8FFD
:10181C00FFF768FF23494FF0E023D3F818C0D1E954
:10182C000023801843F10003C1E900031E4B002282
:10183C001A601E4B1A68831A2DD444F2A01E44F26F
:10184C009F1814FB0E841C44131AB4FBFEF440F2D4
:10185C001A420EFB0433934238BF1346144A934288
:10186C0028BF13464FF0E02233609469013B53616B
:10187C0000239361A445D1E90032ACEB04000DD2F6
:10188C000544EB1842F10002C1E9003287F31188DC
:10189C00BFF36F8FA3E740F21A43E3E7C318F1E7F6
:1018AC00A403002080000020A0030020780000206A
:1018BC002094FF0038B5EFF31185102383F31288C1
:1018CC00BFF36F8F084B1C68084B1B68E41AFFF7BB
:1018DC0009FF85F31188BFF36F8F44F2A0132044E6
:1018EC00B0FBF3F038BD00BF800000207800002072
:1018FC0008B513498B6803F00C03042B1CD0082B80
:10190C001CD14A684B68496813F4800314BF0D4816
:10191C000D48C1F3881118BF002302F03F02A1FB50
:10192C000001FEF73DFC064B5B68C3F3014301333A
:10193C005B00B0FBF3F008BD0248FCE70248FAE795
:10194C000038024000127A000024F400002800F055
:10195C008180424B1B6803F44043B3F5404F30D1B8
:10196C0003F10F6303F58C53984207D83C4B984214
:10197C0009D83C4B984208D9032300E00523012BDE
:10198C0038BF012309E00423F9E7374B98421AD8F2
:10199C00364B98424FF00003F1D8304A126802F4EB
:1019AC004042B2F5004F28D102F10F6202F5A3427A
:1019BC0090420AD9002B08BF0523012B38BF012305
:1019CC001BE00023E9E70223E7E7254A904203D90D
:1019DC00002B08BF0423F0E7224A904203D9002BC6
:1019EC0008BF0323E9E7204A904203D9002BE4D136
:1019FC00022302E01D4A9042DFD8184A126802F412
:101A0C004042B2F5804F13D1164A904206D9002BB2
:101A1C0008BF0323012B38BF012309E0124A90426F
:101A2C0003D9002BF6D1022302E0104A9042F1D8E0
:101A3C000F490A6822F00F021A430A600A6802F082
:101A4C000F02934208D0086800F00F00C01A18BFAC
:101A5C000120704701207047002070470070004043
:101A6C00000E2707804A5D050087930380C3C901D8
:101A7C00003C024038B5EFF31185102383F3128834
:101A8C00BFF36F8F064B9C6801F0A1FD85F31188A5
:101A9C00BFF36F8F2046BDE83840FEF741BF00BF53
:101AAC00A803002038B5094B53F82040013053F8F7
:101ABC002050A54200D838BD636823B1204601F000
:101ACC0089FD0834F5E723689847FAE7443F000896
:101ADC0070B52B4B2B4C2C4D86B0012203201A7069
:101AEC00FFF7E0FF00F0FEFD01F090FD0420FFF792
:101AFC00D9FF2646AE4204F130040FD300F008FBA8
:101B0C00204CAC4226D300F017FBFEF7DFFC1F4A3B
:101B1C00137B23F00103137306B070BD54F80C3C17
:101B2C00059354F8103C049354F8143C039354F864
:101B3C00183C029354F81C3C019354F8203C00933D
:101B4C0054E90A2354E90C0100F0DEF854F8303C57
:101B5C005E65CEE7D4E90A23B3F1FF3F08BFB2F1CB
:101B6C00FF3F05D052EA0301206803D100F09EFA32
:101B7C003034C6E70649183000F0BCFCF8E700BF6B
:101B8C00D9030020F03C0008F03C000808010020BC
:101B9C00AD3600080648074A08B5121A002101F0B4
:101BAC0031FD0548054A0021121A01F02BFD08BD34
:101BBC0078000020DC030020000000100000001062
:101BCC0070B5002386B00122CDE90423134E144DC9
:101BDC0001930F22CDE902321249142303FB005565
:101BEC0006EBC01604464FF4C07000FB04110E4BFC
:101BFC0000954FF4A072304600F086F8737B0B4AC8
:101C0C00EE6023F0100373734FF4046304FB03338F
:101C1C0013442C746B6006B070BD00BF88000020AC
:101C2C00A8030020400C00201B36000800040020F4
:101C3C007FB50020FFF736FF2B4B83F308882B4D25
:101C4C002B4E6B6943F400736B610024F02385F811
:101C5C002230EC772C766C76AC7685F820406B6A6B
:101C6C0043F4E0236B62FEF72FFEFEF75DFF4FF0AF
:101C7C00FF33AB62EB62FFF71DF8FEF779FF1D4BEC
:101C8C00B36040F201129A81C3E919441C6701F058
:101C9C008AFCFEF791FC0120FFF704FF0220164D91
:101CAC00FFF700FF00F07EFA144B756105930123DA
:101CBC00134900944FF48062CDE90343CDE901440C
:101CCC00104B284600F020F86B7B064623F01003DF
:101CDC0028466B7301F0B8FC2046FFF771FF094AE8
:101CEC0031462846FEF702FF400C002000ED00E0D4
:101CFC00A803002088010020080100202E410008C4
:101D0C00C00D0020DD1A0008F0B5073285B004467E
:101D1C0022F007020E9D25737F325830102522F0D9
:101D2C003F02C4E91600657300200D9DA0603F2A98
:101D3C00C4E90600A573E07301F14007A2F1400667
:101D4C0006D880F31188BFF36F8F0425284602DF75
:101D5C00C4E919768D1800260C9AE66602920B9A45
:101D6C0001920A9A009220462A46FEF78DFE044BF9
:101D7C0066659B6803B11B6F2367284605B0F0BDF1
:101D8C00A803002038B590F90D20437B002A0146AA
:101D9C0004DA03F07F03437301F044FC0D4D2A4633
:101DAC00AB6852F8184F944200D004B9EC689942D1
:101DBC0008D05A7B12F01B0F04D1DA897F2A01D983
:101DCC00A2692AB19C4202D0204600F0CFFA2346E9
:101DDC006B6138BDA803002070B590F90D20437BD2
:101DEC00002A33DB13F01B0F30D1826972BB1B4C02
:101DFC0063F07F032246437352F8183FE169934224
:101E0C0007D1C0E900210860E0610FE08B42F8D0F7
:101E1C001B68002BF5D093F90E6090F90E50AE4272
:101E2C00F4DD5968C0E9003108605860A569954235
:101E3C0000D005B9E568A3685A7B12F01B0F06D1D8
:101E4C00DA897F2A03D9AA690AB9636170BDAB42EA
:101E5C0002D0284600F08AFA6561F7E7A803002053
:101E6C002DE9F843002A427B0CBF4FF010094FF0CC
:101E7C00080919EA020F04460F4621D149EA020368
:101E8C00D2092AD14373B9F1080F2CD04FF00008B6
:101E9C00344E334653F8185F9D4200D005B9F568AF
:101EAC00B368AB4202D0284600F060FAB9F1100FCB
:101EBC00756144D1BFF35F8F637B23F06003637361
:101ECC00284B9B689C4247D1EFF30583002B43D1F1
:101EDC003846BDE8F843FEF739BD03F07F03437382
:101EEC0001F0A0FBCFE7A36813B1204601F0A2FBE1
:101EFC0004F1180001F0FAFBA56D04F15806AE428E
:101F0C0011D04FF0000875B1284601F093FB05F194
:101F1C00180001F0EBFBC5F878802846FFF75CFF52
:101F2C00A56DAE42EFD10F4B9B689C42AED1EFF347
:101F3C000588B8F1000818BF4FF00108A8E7B8F100
:101F4C00000FB7D0084BB36040F201129A81002207
:101F5C00C3E919221A67ADE787F31188BFF36F8FB6
:101F6C00BDE8F883A80300208801002070B590F923
:101F7C000D20437B002A014604DA03F07F034373F0
:101F8C0001F050FB4B7B1C4C63F07F0322464B73E0
:101F9C0052F8183FE069934207D1C1E90020016073
:101FAC00E1610FE09842F8D01B68002BF5D093F953
:101FBC000E6091F90E50AE42F4DD5868C1E9003064
:101FCC0001605960A569A368954200D005B9E56820
:101FDC00994208D05A7B12F01B0F04D1DA897F2A60
:101FEC0001D9AA692AB19D4202D0284600F0BEF957
:101FFC002B46636170BD00BFA803002070B5214D56
:10200C00AA688242044624D1EFF305830BBBEFF39D
:10201C001186102383F31288BFF36F8F537B03F069
:10202C007F0343F01003537301F0FCFA2B4653F873
:10203C00184F9C4200D004B9EC68AB689C4202D0AB
:10204C00204600F093F96C613046BDE87040FEF715
:10205C007DBC04F1180001F049FBEFF31181102352
:10206C0083F31288BFF36F8F627B1A4004D081F325
:10207C001188BFF36F8F70BD2046BDE87040FFF72D
:10208C00EFBE00BFA803002049B9EFF3058030B9BB
:10209C00054B5A699B689A4201D0FEF757BC81F3F5
:1020AC001188BFF36F8F7047A803002010B5EFF3B2
:1020BC001184102282F31288BFF36F8F427BD106FA
:1020CC0004D484F31188BFF36F8F10BD22F010027B
:1020DC004273FFF781FE21460248BDE81040FFF72E
:1020EC00D3BF00BFDA030020034648B9EFF30582E3
:1020FC0032B9064A51699268914201D0FEF726BC6A
:10210C0083F31188BFF36F8F704700BFA8030020C3
:10211C00EFF31181102383F31288BFF36F8F054BFC
:10212C009A68D37B013BD37381F31188BFF36F8F14
:10213C00704700BFA803002070B5EFF31186102381
:10214C0083F31288BFF36F8F154DAB68DA7B0132C6
:10215C00DA732A4652F8184F944200D004B9EC684E
:10216C005A7B12F01B0F04D1DA897F2A01D9A2699C
:10217C002AB19C4202D0204600F0F8F823466B614D
:10218C0086F31188BFF36F8FEFF31180102383F365
:10219C001288BFF36F8FBDE87040FFF7A5BF00BF7B
:1021AC00A8030020024B03F11802C3E90622704772
:1021BC00A8030020F8B5EFF31186102383F31288DF
:1021CC00BFF36F8F1C4CA068437B03F07F034373FA
:1021DC0001F028FAA3685A7B214662F07F025A73F9
:1021EC0051F8182FE0698A4207D1C3E90010036047
:1021FC00E3610FE09042F8D01268002AF5D092F912
:10220C000E7093F90E50AF42F4DD5068C3E9002014
:10221C0003605360A5698D4200D005B9E568A368D9
:10222C009D4202D0284600F0A1F865613046BDE819
:10223C00F840FEF78BBB00BFA803002050EA010357
:10224C002DE9F04105460E4603D1FFF7B3FF002000
:10225C002BE0831C71F1FF3329DB01F05CFA2C18A5
:10226C00EFF31188102383F31288BFF36F8F124F93
:10227C00124BB8681860FFF785FDB86810492A46FC
:10228C003346183000F036F9BA68537B43F010032C
:10229C0053734046FEF75AFB01F03DFA201A63EBEC
:1022AC000303012873F10003D1DBBDE8F0816FF06B
:1022BC000104241AD4E700BFA8030020C80300209F
:1022CC00AD360008B1F1FF3F08BFB0F1FF3F08B5D4
:1022DC0006D10A4B9868FFF791FE4FF0FF3008BD0E
:1022EC00FFF7ACFFC11709304FF00A024FF00003A3
:1022FC0041F10001FDF754FFF1E700BFA8030020F6
:10230C00014B9868704700BFA8030020044BC01A0B
:10231C00044BC0105843044B01221A54704700BFA1
:10232C0008020020ABAAAAAADA030020C3897F2BDB
:10233C0013D80B4B1B686BB10A4B90F90E201B6822
:10234C009A420ADB437B13F01B0F06D1064BC31AD0
:10235C0018BF012303F0010070470023FAE700BF08
:10236C00D0030020CC0300208800002070B50E4B59
:10237C000E4C1E7C182303FB06440546204601F038
:10238C00B5F90B4B002228469A55FFF7CFFF48B101
:10239C00084B09491A68013A2046D317BDE870402A
:1023AC0000F0A8B870BD00BFA803002008020020F0
:1023BC00DA030020D00300201923000838B5EFF30E
:1023CC001185102383F31288BFF36F8F104B114AC2
:1023DC009C681068A04206D1FFF7C8FF85F31188EE
:1023EC00BFF36F8F38BD00211B7C11600A4AD35C90
:1023FC00002BF3D02046FFF799FF0028EED0637B2B
:10240C0013F01B0F02D12046FFF7B0FD2046E3E787
:10241C00A8030020C8030020DA0300200A480B4A56
:10242C000B4908B5121A01F0EFF80A480A4A0B4991
:10243C00121A01F0E9F80A480A4A0B49BDE80840AB
:10244C00121A01F0E1B800BF000000207400002057
:10245C009C41000800000020000000209C41000866
:10246C00000000100000001010420008034B1B6815
:10247C000BB9FFF71FBA0020704700BFD403002030
:10248C0030B570B10B4B5B6898420AD0036843B10E
:10249C00D3E90421D0E90445121941EB0501C3E944
:1024AC000421D0E9003213605A600023C0E90033E4
:1024BC0030BD00BF3C00002010B50D4B1C689C4289
:1024CC0008BF0024FFF7D2FF74B1D4E904321B1A01
:1024DC0062EBE072B3F1004F72F1000104DA002AF2
:1024EC00ACBF1846002010BD6FF00040FBE700BFEA
:1024FC003C000020B3F1FF3F08BFB2F1FF3FF8B53D
:10250C0004461D4616465ED08160EFF311871023FA
:10251C0083F31288BFF36F8F013275F1FF3324DA26
:10252C002E49D1E900206FF001039B1A4FF0FF32C6
:10253C0062EB00009E1B60EB0500012E70F10003A6
:10254C0001DA01260020C4E90460254ED6F800C04B
:10255C007568B44508BF4FF0000CBCF1000F0DD1ED
:10256C00C4E900652C6074601CE0FFF77FFF013646
:10257C0045F10005361845EBE070E4E7DCE9042092
:10258C00D4E90431934271EB000E1DDAD21ADCF857
:10259C00043060EB0100CCE90420C4E900C31C60EA
:1025AC00CCF804403368B34209D09C4207D10D4BA0
:1025BC001C6824B9FFF780FF2146FFF701F987F368
:1025CC001188BFF36F8FF8BD9B1A61EB0001AC450E
:1025DC00C4E90431C4D0DCF800C0BEE720020020FE
:1025EC003C000020D40300202DE9F84F0346EFF304
:1025FC001185102282F31288BFF36F8FDFF8A8A029
:10260C00DFF8A890DFF8A880C9F80000DAF800001D
:10261C000026504508BF00200027D8E900124FEAD9
:10262C00E37C50B1D0E9044EA3427CEB0E0B19DADB
:10263C00E41A6EEB0C06C0E904465B1842EB0C0284
:10264C000024C8E90032C9F80040FFF735FF2146E5
:10265C00FFF7B6F885F31188BFF36F8FBDE8F84F1D
:10266C00FFF7ACBE611842EBE472C0E90467C8E93D
:10267C000012FFF705FF85F31188BFF36F8F836896
:10268C009847EFF31185102383F31288BFF36F8FF4
:10269C00D9F80030DAF800001B1BC9F8003050459F
:1026AC0008BF0020B9E700BF3C000020D403002085
:1026BC002002002010B5EFF31184102383F312884D
:1026CC00BFF36F8FFFF7D2FE054A0346D2E9000134
:1026DC00181841EBE37184F31188BFF36F8F10BDB1
:1026EC0020020020014800F001BC00BF334100086B
:1026FC000FB407B5064B04AA186852F8041B0192D4
:10270C0000F0B8F803B05DF804EB04B0704700BFFC
:10271C00403D0008F8B50E4B1D68AB789B0706468C
:10272C0012D56F6816F8014B29462CB90A20B84708
:10273C00002805DB204609E02046B8470028F1DADE
:10274C00AB7843F00403AB704FF0FF30F8BD00BF23
:10275C00403D00082DE9F0410126B24201DCBDE804
:10276C00F08107463B461F4613F8014B002CF6D070
:10277C00252CF8D11D78252D07F10207F2D0002366
:10278C00DFF8EC809C461C461F2C27D8A5F1200EA8
:10279C00BEF1100F06D828FA0EFE1EF0010F53D111
:1027AC002E2D3CD02E2D27D8242D33D02A2D36D0AB
:1027BC00BCF1000FD3D0B445D4D145F02007A7F11C
:1027CC00650CBCF1020F0B6801D9612F42D10733A4
:1027DC0023F0070308330B600136BEE77F2CDFD9EB
:1027EC006C2D23D01DD8682D27D06A2D01D04C2DEF
:1027FC00DED144F4207408E0A5F1300EBEF1090FCF
:10280C00EED80A2404FB03E3202417F8015B002D07
:10281C00BAD1CDE7BCF1000F18D0B34218D00023C9
:10282C00F3E7742DF1D07A2DEFD0C1E7250648BF20
:10283C0044F4007444F08004E7E7E50548BF44F431
:10284C00007444F48074E0E70024DEE79C46E6E77D
:10285C006325B2E7692D02D007D8632D03D0250676
:10286C0001D5A405B3D40433B5E7732DF6E700BF47
:10287C00892801002DE9F04F99B0436801938378C2
:10288C0081469807CDE9031216D507920B46002511
:10289C00187898B1252815D001330293019B49462D
:1028AC009847002805F1010580F2158299F802304D
:1028BC0043F0040389F802304FF0FF35284619B075
:1028CC00BDE8F08F93F801809A1CB8F1250F0292A5
:1028DC00E4D04FF0000B5E465F465C461F2C3ED8A2
:1028EC00A8F12003102B3CD801A252F823F000BF12
:1028FC00592900086F2900086F290008652900086C
:10290C006F2900086F2900086F2900084529000865
:10291C006F2900086F2900086F2900085529000845
:10292C006F2900085F2900086F2900086F2900082B
:10293C004129000844F00104029B13F8018B029317
:10294C00B8F1000FCAD116E044F0020444F00404BC
:10295C00F2E744F00804EFE744F01004ECE77F2CB6
:10296C007AD8B8F12E0F5BD037D8B8F1240F5DD0E0
:10297C00B8F12A0F42D0BBF1000F06D0049B03988C
:10298C0007935A4607A9FFF7E5FE002E48F02003EF
:10299C00B8BF24F04004A3F16502BCBFA4B200266A
:1029AC00022A02D9612B40F08380079BDFF87C82DE
:1029BC00073323F00703083307930726200740F15A
:1029CC00D28008EB060B44465C4540F0CE80A5EB6C
:1029DC00080804EB0802BF1BD4E1A8F13003092B53
:1029EC003AD814F0400F4FF00A0202D002FB063620
:1029FC00A2E702FB073744F020049DE7BBF1000F70
:102A0C009AD1079B610603F10402079201D51E6857
:102A1C0092E71F68002FEEDA7F4244F028048BE720
:102A2C0060063FF54BAF44F0400485E7BBF1000F67
:102A3C0039D014F04008049B039807930CBF3A4616
:102A4C00324607A9FFF786FE079B1A1D0792B8F1BD
:102A5C00000FDCD11F686FE7B8F16C0F15D00BD8E5
:102A6C00B8F1680F18D0B8F16A0F02D0B8F14C0F5A
:102A7C0081D144F420745FE7B8F1740F3FF45CAF7C
:102A8C00B8F17A0F3FF458AF75E7210648BF44F40C
:102A9C00007444F080044FE7E30548BF44F400742D
:102AAC0044F4807448E75E463446BB46374643E7F9
:102ABC00A8F16302122A00F2F68001A151F822F06B
:102ACC00192B0008892B0008B32C0008B32C000824
:102ADC00B32C0008B32C0008892B0008B32C000879
:102AEC00B32C0008B32C0008B32C0008B32C00083E
:102AFC00E72C0008A72C0008B32C0008B32C000806
:102B0C002D2B0008B32C0008412C0008079B1A1D24
:102B1C0007921B688DF8203001260DF120084DE737
:102B2C00079B1A1D0792D3F80080414BB8F1000F98
:102B3C0008BF984614F0400F14BF31464FF0FF31D8
:102B4C00404600F002FE064638E7019B494620202D
:102B5C0098470028FFF6AAAE013CB442F5D83D4494
:102B6C002D1B27462DE73C46F7E714F8010B019B7C
:102B7C00494698470028BFF627AF97E62106079BE2
:102B8C0032D5A2052BD5073323F0070303F1080236
:102B9C000792D3E9000124F0100B00291FFA8BFBDC
:102BAC0032DA404261EB41014BF4806B08AC0A23F2
:102BBC00224600F0D6FD1BF0400FA0EB040200F003
:102BCC00A5802BF001049642A4B240F3A980B8F181
:102BDC00000F40F0A7802BF01104A4B21FE01A1DC7
:102BEC0007921868C117D6E71A1D0792E0051968F5
:102BFC0001D40846F6E7A2054BBF48B208B241F330
:102C0C00C01141F3C031C6E750EA0103CED16306CF
:102C1C00CCD5002ECAD124F01104A4B23246B2464F
:102C2C0040F206410C4278D12BE000BF7541000800
:102C3C006E41000824F01004A4B20A2314F0800C96
:102C4C00079A50D014F400711DBF073222F007020E
:102C5C0002F10801101D15BF07910790D2E9000180
:102C6C00106850EA01024BD124F0160B62061FFAD1
:102C7C008BFB49D5002E47D124F01704A4B2324661
:102C8C00B246230765D4E10705D557457DDDA7EB93
:102C9C000A039E18BA46D34654E044F0100410239D
:102CAC004FF07808CAE7782B04D1C8F1780343F0C9
:102CBC001003C3E7622B14D0019B4946252098478B
:102CCC000028FFF6F3AD019B494640469847002883
:102CDC00FFF6ECAD0235029BDAE508234FF0000855
:102CEC00ACE70223AAE7111D079114F48071106858
:102CFC00B7D014F400711ABFC0B2614680B2B0E70D
:102D0C0024F006041FFA84FB08AC51E792465C469B
:102D1C00E10685D5B8F1000F06D10AF1010AB0E73A
:102D2C009246F5E7B246F3E70AF1020AA9E7019BDE
:102D3C0005924946202098470028FFF6B7AD059A22
:102D4C000BF1010B5F45F2DCA5EB0A0303EB0B0562
:102D5C00DA46E30625D5019B059249463020984773
:102D6C000028FFF6A3AD059AB8F1000F0FD101357D
:102D7C002E44711B914226DC144608AE74BB2A44C7
:102D8C00A7EB0A07154617443BE0164683E7059266
:102D9C00023549464046019B98470028059AE7DAD8
:102DAC0084E540F206410C42E2D014F0020F14BF4D
:102DBC002B20202014F4806F059205F10105494663
:102DCC0018BF2D20E7E7019B059249463020984714
:102DDC000028059A05F10105CBDA67E5013C019B5A
:102DEC00305D0592494698470028059AC6DA5DE59C
:102DFC00019B494620209847002805F10105FFF664
:102E0C0055AD7B1B002BF3DC65E700BF704700EB77
:102E1C00C100408840087047F8B50346FFF7F7FF3C
:102E2C00B0FA80F0C0F11F0003EB800CCA00DCF894
:102E3C001060171D0C4606328DB256B9012101FAED
:102E4C0000F0D9680143D960CCF81040DD539D5295
:102E5C00F8BDF1000431585AD85303EBC0009E5210
:102E6C00C5805D52F4E7043A2DE9F843CC1D1144BA
:102E7C0024F0070421F00706A6EB04084FEAD80754
:102E8C00B7FA87F2C2F12405AD004FF000090735FF
:102E9C00C2F12002ED0804604946A760C4F80C900A
:102EAC00920004F1100000F048FCAAB2530043F069
:102EBC00010363807B1B9BB204EBC5015800A4F893
:102ECC000090488024F83520A6F8029024F80830A9
:102EDC0004EBC70329465A8842F001025A80204667
:102EEC00BDE8F843FFF798BF002070470FB407B553
:102EFC0004A951F8040B0191FDF73CFB03B05DF8FC
:102F0C0004EB04B07047044608B5084611461A464F
:102F1C00A047FFF7F5F9FDF703FD7047012801D134
:102F2C00EFF30583FEF7A6BD01460068FFF7F6BF79
:102F3C0000210120FFF7F2BF61B662B680F3118861
:102F4C00BFF36F8F704772B6002383F31188BFF302
:102F5C006F8FBFF34F8F30BF62B6BFF36F8F704769
:102F6C00202809D9B0F1004F08D80138B0FA80F008
:102F7C00C0F11F0040007047082070473E2070478A
:102F8C0008B5FDF749FF002008BD012088407047B7
:102F9C0000F00302043292000F23934043EA9000A6
:102FAC0010B5C3B29B0003F1804303F59C33020CB4
:102FBC009C6892FAA2F2B2FA82F224EA1040914092
:102FCC000143996010BD0B68A3F13002782A82B0DE
:102FDC0012D803F1804303F50E3348681A68024394
:102FEC001A600B6803F1804303F50E3300201B6855
:102FFC000193019B02B070476FF08500FAE70B68F4
:10300C00A3F13002782A9FBF03F1804303F50E33FE
:10301C0049681A689DBF8A4300201A606FF08500CA
:10302C007047072808D8EA23C34013F0010F0CBFE0
:10303C006FF08500002070476FF08500704738B541
:10304C000868FFF7EEFF00BB4A68FF2A1CD0D3B21A
:10305C0003F1804303F50E33C2F342351C68C2F30F
:10306C00042205FA02F224EA02021A604968CBB281
:10307C0003F1804303F50E33C1F302421C68C1F324
:10308C0004218A4022431A6038BD6FF08500FBE7AB
:10309C00086808B5A0F13003782B0AD800F18040FD
:1030AC0000F50E304B68026893430CBF02200120E0
:1030BC0008BDFFF7B6FF00280CBF02200120F7E780
:1030CC00704743685B681B690B600020704743685E
:1030DC005B68586942400A4042405A610020704780
:1030EC0043685B6800209961704743685B6809041A
:1030FC0099610020704743685A6853694B4053618B
:10310C000020704730B50369986800B300248842EA
:10311C0019D108688CB9DC689860A14200D1D860DC
:10312C00002008602AB19A680A60DA68996002B9CE
:10313C00D96000200FE02846E9E72060D86881427A
:10314C0008BFDC60ECE705680446002DF3D1002ACB
:10315C00E9D16FF0150030BDF0B544680120676807
:10316C0088401E46C2F3801327EA00078B403B437E
:10317C00636090FAA0F7B7FA87F7D4F808C04FF05D
:10318C00030E7F000EFA07F72CEA070C90FAA0F753
:10319C00B7FA87F7C2F3C1137F00BB4043EA0C03B5
:1031AC00A36090FAA0F3B3FA83F3E7685B000EFA1E
:1031BC0003F327EA030790FAA0F3B3FA83F302F0C0
:1031CC0030055B00C2F341229A403A43202DE26065
:1031DC0016D107292BD890FAA0F3226A2BB3B3FA95
:1031EC0083F39B000F2101FA03F322EA030290FA06
:1031FC00A0F3B3FA83F39B0006FA03F313432362A1
:10320C0090FAA0F3B3FA83F3226890FAA0F05B0073
:10321C000321B0FA80F02D0901FA03F3400022EAF1
:10322C00030385401D432560F0BD2B46D9E7030AF7
:10323C00616A93FAA3F282B1B2FA82F292000F277A
:10324C0093FAA3F3B3FA83F307FA02F29B0021EA91
:10325C0002029E4016436662D2E72A46EEE712F45B
:10326C00003CF8B505460C46134637D096072ED5CC
:10327C00500748D55022D9062BD542F4007213F4CE
:10328C0040372E6912D0306920FA04F1C9075FBFAC
:10329C000121A14001433161BCF1000F06D018039C
:1032AC0029D5696801234968A3408B6168680023AC
:1032BC002146FFF751FF47B9336923FA04F2D207CD
:1032CC0041BF0122A240934333610020F8BD10227C
:1032DC00D1E79F06D3D542F48062D0E7D60305D55B
:1032EC00D00605D4C2F340129202C8E73022C6E7DA
:1032FC004FF40072C3E75903D8D50121A1402846E9
:10330C00FFF7F3FED2E76FF08500DFE770B50B46F1
:10331C008968054611B15E680C6801B970BD8A6890
:10332C002A4002D04B68304698471CB1236821468E
:10333C001C46F2E72346FAE7F8B51F4604464068F8
:10334C000E461546FFF708FF112F07D101212B055B
:10335C0001FA06F104D563685B6899610020F8BD39
:10336C002046FFF7C2FEF9E730B503681360057914
:10337C00046804EBC504A34202D36FF0010030BD16
:10338C005C798C4203F10803F0D10020F7E7436825
:10339C00C1F34B101B6801F01F01C05801238B4077
:1033AC000340003B18BF012313700020704710B579
:1033BC004368C1F34B101A6801F01F0184580123B4
:1033CC008B4023438350002010BD10B54368C1F3DC
:1033DC004B14186801F01F01235801228A4023EA7C
:1033EC0002032350002010BD38B504460D46FFF7EC
:1033FC00DEFF29462046FFF7E8FF002038BD82B0EB
:10340C0003680193019B43680193019B02B07047D1
:10341C0008B54368186802680368C2F3C00203F079
:10342C00010342EA430203689B07036848BF42F06A
:10343C0004025907036848BF42F02002DB0542BF73
:10344C006FF4807342F008020360D10701D5FFF7D7
:10345C00D6FF930701D5FFF7D2FF510701D5FFF730
:10346C00CEFF930601D5FFF7CAFF104608BD37B54E
:10347C000269436810681C680D46D9688368DB686C
:10348C00E3B101AA9847002818DBE368019823F4FC
:10349C0000431921E360AA00AB0FA0FB0101FCF76C
:1034AC007FFE6422B0FBF2F102FB11031B013233ED
:1034BC00B3FBF2F303EB01139BB2A36003B030BD7B
:1034CC0008B54368186803681A0701D5FFF797FF1A
:1034DC0003689B0643BF43680B7000204FF0FF301E
:1034EC0008BD10B543681B6810201A681206FCD57D
:1034FC00EFF3118280F31288BFF36F8F1C682406E0
:10350C0004D482F31188BFF36F8FEEE7596082F316
:10351C001188BFF36F8F10BD03695B681B680B606C
:10352C0043681B68DB6803F4C063B3F5806F2FD06E
:10353C00A3F5C06CDCF1000343EB0C030B71436887
:10354C001B681B6903F44053B3F5805F22D0B3F5BD
:10355C00405F21D0002B0CBF012303234B71436828
:10356C001B68DA68DB68D20403F4C06316D5002B41
:10357C000CBF042303238B7143681B685B6903F442
:10358C004073A3F5407253425341CB7100207047F6
:10359C000223D3E70023E1E70223DFE7002B0CBF74
:1035AC0003230223E7E7704740B1C368587810F053
:1035BC0001001EBF1878B0FA80F040097047EFF395
:1035CC001183102383F31288BFF36F8FFEE708B5C6
:1035DC00FFF7F5FF10B5D0E9003433B90020E268ED
:1035EC00537843F00103537010BD204698470028D0
:1035FC00F4D00028B8BF4042E368FF28A8BFFF20E2
:10360C001870ECE700F099B800F089B8704708B56D
:10361C001024EFF3118384F31288BFF36F8FFFF73D
:10362C0092FCF6E7D0E9003213605A600023C0E93F
:10363C000033704708B5FFF7F5FF437B23F0020317
:10364C0043730023836008BD10B5EFF3118410237E
:10365C0083F31288BFF36F8FFEF7BEFB84F31188E0
:10366C00BFF36F8F10BD10B50146EFF3118410231B
:10367C0083F31288BFF36F8F437B13F0280F0AD1AB
:10368C0083680BB1FFF7D6FF4B7B23F010034B7312
:10369C000846FEF7A1FB84F31188BFF36F8F10BDB2
:1036AC0001211838FFF7DFBFEFF31181102282F3ED
:1036BC001288BFF36F8F027BD2070CD581F3118870
:1036CC00BFF36F8F002383F31188BFF36F8F042335
:1036DC00184602DF7047437B1B0704D581F3118822
:1036EC00BFF36F8F70470122FEF7BABB10B5EFF333
:1036FC001184102282F31288BFF36F8F03683BB1E1
:10370C00FEF7BEFE002084F31188BFF36F8F10BD4F
:10371C006FF01500F7E708B5FEF7CCFF08BD0A44BB
:10372C00914200F1FF3300D1704710B511F8014BF5
:10373C0003F8014F9142F9D110BD02440346934264
:10374C0000D1704703F8011BF9E710B5024601449C
:10375C008A42134603D01C780132002CF8D1181A77
:10376C0010BDF0B5C3F137070446FFB203F01F03D9
:10377C001046082BE6B213D0102B18D0022B4FEAB0
:10378C0054054FEA51021DD145EAC17406F00106F9
:10379C001146303654EA010200F8016BE9D1F0BD54
:1037AC00E40844EA417406F00706C908F1E7240965
:1037BC0044EA017406F00F060909092E84BFF619B4
:1037CC00F6B2E6E7A40845EAC17544EA81742C19FF
:1037DC0042EB9102210941EA0271641842EB121288
:1037EC00210A41EA0261641842EB1222210C41EADF
:1037FC000241641842EB1242A41842F10002E408A0
:10380C0044EA4274D10804EB8402A6EB4206F6B2F9
:10381C00092EBED90134A6F10A0641F10001F6B217
:04382C00CBE70000E6
:08383000ACC9FF7F010000009C
:1038380055110008D8380008B1050008000000003C
:1038480000000000EC380008BD130008C839000863
:10385800BD130008B4390008D50E00080039000867
:10386800BD130008A0390008BD130008DC390008A2
:10387800BD1300088C390008BD130008783900080A
:10388800BD13000864390008BD130008503900084A
:10389800BD1300083C390008BD130008283900088A
:1038A800BD1300081439000849160008F03900084B
:1038B80049160008043A0008BD120008000000007C
:1038C80035170008000000004D0E00080000000039
:1038D8005640000800000000F03C00085600002098
:1038E80000000000FD400008843E0008883E0008F3
:1038F8006E000020000000003840000800000000B2
:10390800000000005400002044020020634000082A
:10391800443D0008203E000858000020C402002052
:1039280071400008583D0008203E00085A00002059
:10393800D80200207F4000086C3D0008203E0008A7
:103948005C000020EC0200208D400008803D00084B
:10395800203E00085E000020000300209B40000875
:10396800943D0008203E0008600000201403002059
:10397800A9400008A83D0008203E00086200002079
:1039880028030020B7400008BC3D0008203E00087E
:10399800640000203C030020C5400008D03D00081A
:1039A800203E00086600002050030020D340000895
:1039B800E43D0008203E0008680000206403002061
:1039C800E1400008F83D0008203E00086A00002099
:1039D80078030020EF4000080C3E0008203E000855
:1039E8006C0000208C0300200E410008983E00085F
:1039F800303F000870000020180000201E41000819
:103A0800E43E0008303F0008720000202800002033
:103A1800000000003D2F0008000000003D2F0008B6
:103A2800000000003D2F0008000000003D2F0008A6
:103A3800000000003D2F0008000000003D2F000896
:103A480089410008710E000887410008710E0008BE
:103A580085410008710E000883410008710E0008B6
:103A680081410008710E0008000000003D2F000889
:103A7800000000003D2F0008000000003D2F000856
:103A8800000000003D2F0008000000003D2F000846
:103A9800000000003D2F0008000000003D2F000836
:103AA800000000003D2F0008000000003D2F000826
:103AB800000000003D2F0008000000003D2F000816
:103AC800000000003D2F00087F410008710E00082B
:103AD800000000003D2F0008000000003D2F0008F6
:103AE800000000003D2F0008000000003D2F0008E6
:103AF800000000003D2F0008000000003D2F0008D6
:103B0800000000003D2F0008000000003D2F0008C5
:103B1800000000003D2F0008000000003D2F0008B5
:103B2800000000003D2F0008000000003D2F0008A5
:103B3800000000003D2F0008000000003D2F000895
:103B4800000000003D2F0008000000003D2F000885
:103B58007D410008710E0008000000003D2F00089C
:103B6800000000003D2F0008000000003D2F000865
:103B7800000000003D2F0008000000003D2F000855
:103B8800000000003D2F0008000000003D2F000845
:103B9800000000003D2F0008000000003D2F000835
:103BA800000000003D2F0008000000003D2F000825
:103BB800000000003D2F0008000000003D2F000815
:103BC800000000003D2F0008000000003D2F000805
:103BD800000000003D2F0008000000003D2F0008F5
:103BE800000000003D2F0008000000003D2F0008E5
:103BF800000000003D2F0008000000003D2F0008D5
:103C0800000000003D2F0008000000003D2F0008C4
:103C1800000000003D2F0008000000003D2F0008B4
:103C2800000000003D2F0008000000003D2F0008A4
:103C3800000000003D2F0008000000003D2F000894
:103C4800000000003D2F0008000000003D2F000884
:103C5800000000003D2F0008000000003D2F000874
:103C6800000000003D2F0008000000003D2F000864
:103C7800000000003D2F0008000000003D2F000854
:103C8800000000003D2F0008000000003D2F000844
:103C9800000000003D2F0008000000003D2F000834
:103CA800000000003D2F0008000000003D2F000824
:103CB800000000003D2F0008000000003D2F000814
:103CC800000000003D2F0008000000003D2F000804
:103CD800000000003D2F0008000000003D2F0008F4
:083CE800000000003D2F000860
:103CF000D32F00080B30000800000000B5100008AA
:0C3D00009D300008000000004B3000085F
:103D0C004400000000400000000000200000000003
:103D1C0000000B0602000000283D0008000000080F
:103D2C00294000082800020700000020314000084C
:103D3C0022000B1108000020FFFF000000280240A9
:103D4C000A0000003000000000040000FFFF00002B
:103D5C0000240240090000003000000000020000B6
:103D6C00FFFF0000002002400800000030000000AF
:103D7C0000010000FFFF0000001C024007000000D3
:103D8C003000000080000000FFFF0000001802401F
:103D9C00060000003000000040000000FFFF0000A3
:103DAC00001402400500000030000000200000005C
:103DBC00FFFF000000100240040000003000000073
:103DCC0010000000FFFF0000000C02400300000088
:103DDC003000000008000000FFFF00000008024057
:103DEC00020000003000000004000000FFFF000093
:103DFC00000402400100000030000000020000003E
:103E0C00FFFF000000000240000000003000000036
:103E1C00010000006B320008CF300008DB300008D6
:103E2C00ED300008F7300008033100080D130008CE
:103E3C001131000800000000DC390008C839000806
:103E4C00B4390008A03900088C390008783900080A
:103E5C0064390008503900083C390008283900083A
:103E6C0014390008000000000000000000000000F1
:103E7C000000000000000000003802409B330008E6
:103E8C00BB330008D7330008F53300080048004066
:103E9C00EC38000812040000BC3E000801000000D1
:103EAC00000000000000000000000000C43E0008FC
:103EBC004000000000000400CC3E0008010000009F
:103ECC00D43E0008020000000707000000020000BA
:103EDC00270700000000000000140140EC38000827
:103EEC0085040000083F00080100000000000000ED
:103EFC000000000000000000103F0008440000001B
:103F0C0020000000183F000801000000203F0008BE
:103F1C0002000000C80D000000020000280D000087
:103F2C0000000000CD340008EF3400081D340008F8
:103F3C00691500082535000838380008383800089D
:103F4C00C8380008D0380008D8380008D83800081D
:103F5C00001000000030546865206C6F61642073A1
:103F6C0077697463682070696E204750494F2070E0
:103F7C006F7274206973206E6F742072656164793E
:103F8C002E00496E697469616C697A696E6720707C
:103F9C00696E207769746820696E616374697665EF
:103FAC00206C6576656C2E00436F6E666967757262
:103FBC00696E67204750494F2070696E20666169B1
:103FCC006C65643A2025640A0057616974696E67F0
:103FDC00206F6E65207365636F6E642E005365747D
:103FEC0074696E672070696E20746F2061637469E8
:103FFC007665206C6576656C2E0053657474696EFD
:10400C0067204750494F2070696E206C6576656C4F
:10401C00206661696C65643A2025640A00464C414F
:10402C0053485F30005352414D5F3000696E7465E8
:10403C0072727570742D636F6E74726F6C6C6572C6
:10404C00403430303133633030007263634034308D
:10405C00303233383030006770696F403430303272
:10406C0032383030006770696F403430303232345F
:10407C003030006770696F4034303032323030305D
:10408C00006770696F403430303231633030006714
:10409C0070696F40343030323138303000677069BD
:1040AC006F403430303231343030006770696F40DB
:1040BC003430303231303030006770696F4034301A
:1040CC00303230633030006770696F4034303032DA
:1040DC0030383030006770696F40343030323034F3
:1040EC003030006770696F403430303230303030EF
:1040FC000072657365742D636F6E74726F6C6C6592
:10410C00720073657269616C403430303034383011
:10411C00300073657269616C403430303131343049
:10412C0030006D61696E002A2A2A20426F6F746913
:10413C006E67205A6570687972204F5320627569DA
:10414C006C642076342E302E302D313236302D6783
:10415C00626161343966366633326435202A2A2A24
:10416C000A00286E756C6C29002A666C6F61742AC3
:10417C00000A06050504010301020101010001000A
:10418C0000000000000000010203040607080900FB
:10419C00F52E000815060008000000008D2F000801
:1041AC0000000000000000000000000020000020C3
:1041BC0000C20100000103000000000030000020DC
:1041CC0000C20100000103000024F4003C000020A8
:1041DC003C000020FFFFFFFFFFFFFFFFFFFFFFFF83
:0441EC00FFFFFFFFD3
:1041F00000000000000000000000000000000000BF
:1042000000000000000000000000000000000000AE
:0442100015E015E0C0
:0400000508000901E5
:00000001FF
